:020000040800F2
:1000000000500020A1020008E9020008E9020008EF
:10001000E9020008E9020008E90200080000000007
:10002000000000000000000000000000E9020008DD
:10003000E902000800000000E9020008E9020008E7
:10004000E9020008E9020008E9020008E9020008E4
:10005000E9020008E9020008E9020008E9020008D4
:10006000E9020008E9020008E9020008E9020008C4
:10007000E9020008E9020008E9020008E9020008B4
:10008000E9020008E9020008E9020008E9020008A4
:10009000E9020008E9020008E9020008E902000894
:1000A000E9020008E9020008E9020008E902000884
:1000B000E9020008E9020008E9020008E902000874
:1000C000E9020008E9020008E9020008E902000864
:1000D000E9020008E9020008E9020008E902000854
:1000E000E9020008E9020008E90200080000000037
:1000F0000000000000000000000000000000000000
:0C01000000000000000000005FF808F1A3
:10010C0010B5054C237833B9044B13B10448AFF345
:10011C0000800123237010BD0000002000000000AF
:10012C003403000808B5034B1BB103490348AFF374
:10013C00008008BD0000000004000020340300080B
:10014C007047002201E000BF013240F2544300FB33
:10015C0003F39342F7D8704708B54C4A936943F0C0
:10016C0004039361A2F58832D2F8043823F001011C
:10017C00C2F8041841F00201C2F8041823F005017A
:10018C0041F00201C2F8041823F00D0343F00203FE
:10019C00C2F80438D2F80C1821F48070C2F80C089C
:1001AC0023F01000C2F8040840F02000C2F8040844
:1001BC0023F0500040F02000C2F8040823F0D003D4
:1001CC0043F02003C2F8043821F44070C2F80C0844
:1001DC0023F48070C2F8040840F40070C2F80408DC
:1001EC0023F4A06040F40070C2F8040823F45063B8
:1001FC0043F40073C2F8043821F4E061C2F80C181F
:10020C0023F48030C2F8040823F44030C2F8040808
:10021C0023F4E023C2F8043843F40023C2F8043872
:10022C0041F01000C2F80C0823F48010C2F8040846
:10023C0023F44010C2F8040823F4E003C2F8043895
:10024C0043F40003C2F8043841F03001C2F80C1832
:10025C000F4CD4F8103823F08073C4F8103843F4E2
:10026C008073C4F810384FF47A70FFF76AFFD4F833
:10027C00103823F48073C4F8103843F08073C4F83A
:10028C0010384FF47A70FFF75CFFE1E70010024082
:10029C0000000140FFF754FF0B480C490C4A0023A7
:1002AC0002E0D458C4500433C4188C42F9D3094A20
:1002BC00094C002301E013600432A242FBD300F08E
:1002CC000FF8FFF749FF70470000002000000020E6
:1002DC0054030008000000201C000020FEE7000072
:1002EC0070B500260C4D0D4C641BA410A64209D110
:1002FC0000F01AF800260A4D0A4C641BA410A64202
:10030C0005D170BD55F8043B98470136EEE755F81A
:10031C00043B98470136F2E74C0300084C030008F5
:10032C004C03000850030008F8B500BFF8BC08BC2B
:10033C009E467047F8B500BFF8BC08BC9E46704797
:04034C003101000873
:040350000D01000893
:04000005080002A14C
:00000001FF
