:020000040800F2
:1000000000500020890E0008D10E0008D10E000813
:10001000D10E0008D10E0008D10E0008000000002B
:10002000000000000000000000000000D10E0008E9
:10003000D10E000800000000D10E0008D10E00080B
:10004000D10E0008D10E0008D10E0008D10E000814
:10005000D10E0008D10E0008D10E0008D10E000804
:10006000D10E0008D10E0008D10E0008D10E0008F4
:10007000D10E0008D10E0008D10E0008D10E0008E4
:10008000D10E0008D10E0008D10E0008D10E0008D4
:10009000D10E0008D10E0008D10E0008D10E0008C4
:1000A000D10E0008D10E0008D10E0008D10E0008B4
:1000B000D10E0008D10E0008D10E0008D10E0008A4
:1000C000D10E0008D10E0008D10E0008D10E000894
:1000D000D10E0008D10E0008D10E0008D10E000884
:1000E000D10E0008D10E0008D10E0008000000005B
:1000F0000000000000000000000000000000000000
:0C01000000000000000000005FF808F1A3
:10010C0080F0004002E000BF81F0004142001FBFC0
:10011C005FEA410392EA030F7FEA226C7FEA236CC9
:10012C006AD04FEA1262D2EB1363C1BFD2184140BE
:10013C0048404140B8BF5B42192B88BF704710F054
:10014C00004F40F4000020F07F4018BF404211F0F7
:10015C00004F41F4000121F07F4118BF494292EA5F
:10016C00030F3FD0A2F1010241FA03FC10EB0C008B
:10017C00C3F1200301FA03F100F0004302D5494218
:10018C0060EB4000B0F5000F13D3B0F1807F06D3C5
:10019C0040084FEA310102F10102FE2A51D2B1F1BD
:1001AC00004F40EBC25008BF20F0010040EA0300B2
:1001BC007047490040EB0000013A28BFB0F5000F32
:1001CC00EDD2B0FA80FCACF1080CB2EB0C0200FAE8
:1001DC000CF0AABF00EBC25052421843BCBFD04037
:1001EC001843704792F0000F81F4000106BF80F4B1
:1001FC0000000132013BB5E74FEA41037FEA226C74
:10020C0018BF7FEA236C21D092EA030F04D092F03E
:10021C00000F08BF0846704790EA010F1CBF002072
:10022C00704712F07F4F04D1400028BF40F00040CF
:10023C00704712F100723CBF00F50000704700F0EF
:10024C00004343F0FE4040F4000070477FEA226216
:10025C0016BF08467FEA23630146420206BF5FEAE7
:10026C00412390EA010F40F4800070474FF00003E7
:10027C0004E000BF10F0004348BF40425FEA000CAE
:10028C0008BF704743F0964301464FF000001CE056
:10029C0050EA010208BF70474FF000030AE000BFAC
:1002AC0050EA010208BF704711F0004302D54042EA
:1002BC0061EB41015FEA010C02BF8446014600205C
:1002CC0043F0B64308BFA3F18053A3F50003BCFA77
:1002DC008CF2083AA3EBC25310DB01FA02FC634424
:1002EC0000FA02FCC2F12002BCF1004F20FA02F22B
:1002FC0043EB020008BF20F00100704702F120021E
:10030C0001FA02FCC2F1200250EA4C0021FA02F27E
:10031C0043EB020008BF20EADC7070474FF0FF0C83
:10032C001CEAD0521EBF1CEAD15392EA0C0F93EA7E
:10033C000C0F6FD01A4480EA010C400218BF5FEA20
:10034C0041211ED04FF0006343EA501043EA511193
:10035C00A0FB01310CF00040B1F5000F3EBF49008D
:10036C0041EAD3715B0040EA010062F17F02FD2A91
:10037C001DD8B3F1004F40EBC25008BF20F0010074
:10038C00704790F0000F0CF0004C08BF49024CEA8B
:10039C00502040EA51207F3AC2BFD2F1FF0340EA1D
:1003AC00C250704740F400004FF00003013A5DDC8E
:1003BC0012F1190FDCBF00F000407047C2F10002CF
:1003CC00410021FA02F1C2F1200200FA02FC5FEABC
:1003DC00310040F1000053EA4C0308BF20EADC7006
:1003EC00704792F0000F00F0004C02BF400010F478
:1003FC00000F013AF9D040EA0C0093F0000F01F025
:10040C00004C02BF490011F4000F013BF9D041EA46
:10041C000C018FE70CEAD15392EA0C0F18BF93EA48
:10042C000C0F0AD030F0004C18BF31F0004CD8D172
:10043C0080EA010000F00040704790F0000F17BFF9
:10044C0090F0004F084691F0000F91F0004F14D03F
:10045C0092EA0C0F01D142020FD193EA0C0F03D197
:10046C004B0218BF084608D180EA010000F000409A
:10047C0040F0FE4040F40000704740F0FE4040F475
:10048C00400070474FF0FF0C1CEAD0521EBF1CEA14
:10049C00D15392EA0C0F93EA0C0F69D0A2EB030232
:1004AC0080EA010C49024FEA402037D04FF08053CC
:1004BC0043EA111143EA10130CF000408B4238BF91
:1004CC005B0042F17D024FF4000C8B4224BF5B1A9F
:1004DC0040EA0C00B3EB510F24BFA3EB510340EAED
:1004EC005C00B3EB910F24BFA3EB910340EA9C009B
:1004FC00B3EBD10F24BFA3EBD10340EADC001B010B
:10050C0018BF5FEA1C1CE0D1FD2A3FF650AF8B42AE
:10051C0040EBC25008BF20F0010070470CF0004CBB
:10052C004CEA50207F32C2BFD2F1FF0340EAC250E6
:10053C00704740F400004FF00003013A37E792F0A7
:10054C00000F00F0004C02BF400010F4000F013A05
:10055C00F9D040EA0C0093F0000F01F0004C02BF00
:10056C00490011F4000F013BF9D041EA0C0195E769
:10057C000CEAD15392EA0C0F08D142027FF47DAF02
:10058C0093EA0C0F7FF470AF084676E793EA0C0FF2
:10059C0004D14B023FF44CAF08466EE730F0004CF0
:1005AC0018BF31F0004CCAD130F000427FF45CAF80
:1005BC0031F000437FF43CAF5FE700BF4FF0FF3CEE
:1005CC0006E000BF4FF0010C02E000BF4FF0010C41
:1005DC004DF804CD4FEA40024FEA41037FEA226C0A
:1005EC0018BF7FEA236C11D001B052EA530C18BF2C
:1005FC0090EA010F58BFB2EB030088BFC81738BF91
:10060C006FEAE17018BF40F0010070477FEA226C7E
:10061C0002D15FEA402C05D17FEA236CE4D15FEA7A
:10062C00412CE1D05DF8040B704700BF84460846AE
:10063C006146FFE70FB5FFF7C9FF002848BF10F16F
:10064C00000F0FBD4DF808EDFFF7F4FF0CBF0120B4
:10065C0000205DF808FB00BF4DF808EDFFF7EAFF3E
:10066C0034BF012000205DF808FB00BF4DF808EDF9
:10067C00FFF7E0FF94BF012000205DF808FB00BFEE
:10068C004DF808EDFFF7D2FF94BF012000205DF874
:10069C0008FB00BF4DF808EDFFF7C8FF34BF012081
:1006AC0000205DF808FB00BF10B5054C237833B96A
:1006BC00044B13B10448AFF300800123237010BD29
:1006CC000C000020000000001C0F000808B5034BB4
:1006DC001BB103490348AFF3008008BD00000000C4
:1006EC00100000201C0F000870470000074B1A6810
:1006FC0001321A601B68222B06D9054A1368013394
:10070C001360024B00221A60704700BF800000206B
:10071C00840000200023024A1360024A13607047D1
:10072C008400002080000020014B1868704700BF37
:10073C008400002010B504460021FFF783FF00B1B0
:10074C0010BD21461E48FFF79DFE04461D4B01229D
:10075C001A70FFF7E9FF1C4B1B68C01AFFF786FDE8
:10076C002146FFF78DFF0028EAD0184A1378B3FA18
:10077C0083F35B091370164A012111708BB1154A72
:10078C00D2F8103823F08073C2F8103843F4807319
:10079C00C2F81038104B1970FFF7C6FF0A4B1860DF
:1007AC00CEE70C4AD2F8103823F48073C2F8103814
:1007BC0043F08073C2F81038084B01221A70EBE733
:1007CC000000FA437F0000204C000020480000206D
:1007DC007E000020000001407D0000207C000020F5
:1007EC0010B504460021FFF72DFF00B110BD2146C6
:1007FC001948FFF747FE0446FFF796FF174B1B6897
:10080C00C01AFFF733FD2146FFF73AFF0028EDD061
:10081C00134A1378B3FA83F35B0913707BB1114A53
:10082C00D2F8103823F00073C2F8103843F4007378
:10083C00C2F81038FFF778FF084B1860D6E7094A62
:10084C00D2F8103823F40073C2F8103843F0007358
:10085C00C2F81038EEE700BF0000FA434400002055
:10086C00400000200000014010B504460021FFF7B5
:10087C00E9FE00B110BD21461948FFF703FE0446FE
:10088C00FFF752FF174B1B68C01AFFF7EFFC21460E
:10089C00FFF7F6FE0028EDD0134A1378B3FA83F372
:1008AC005B0913707BB1114AD2F8103823F08063C6
:1008BC00C2F8103843F48063C2F81038FFF734FFE5
:1008CC00084B1860D6E7094AD2F8103823F4806335
:1008DC00C2F8103843F08063C2F81038EEE700BF5E
:1008EC000000FA433C0000203900002000000140C9
:1008FC0008B5012806D0022808D010B90868FFF7FF
:10090C0019FF08BD4868FFF76BFFFAE78868FFF727
:10091C00ABFFF6E7002201E000BF013200EB8003E1
:10092C00C3EBC3039342F7D87047000010B50128FE
:10093C0035D0022866D088BB4C4CD4F8103823F044
:10094C008073C4F8103843F48073C4F81038142042
:10095C00FFF7E0FFD4F8103823F48073C4F8103894
:10096C0043F08073C4F810381420FFF7D3FFD4F889
:10097C00103823F08073C4F8103843F48073C4F833
:10098C0010381420FFF7C6FFD4F8103823F4807306
:10099C00C4F8103843F08073C4F8103810BD334CD1
:1009AC00D4F8103823F00073C4F8103843F40073F3
:1009BC00C4F810381420FFF7ADFFD4F8103823F426
:1009CC000073C4F8103843F00073C4F810381420C6
:1009DC00FFF7A0FFD4F8103823F00073C4F81038D8
:1009EC0043F40073C4F810381420FFF793FFD4F8C5
:1009FC00103823F40073C4F8103843F00073C4F8B3
:100A0C001038CBE7194CD4F8103823F08063C4F8B5
:100A1C00103843F48063C4F810381420FFF77AFFC1
:100A2C00D4F8103823F48063C4F8103843F0806392
:100A3C00C4F810381420FFF76DFFD4F8103823F0E9
:100A4C008063C4F8103843F48063C4F81038142061
:100A5C00FFF760FFD4F8103823F48063C4F8103823
:100A6C0043F08063C4F8103898E700BF00000140E1
:100A7C0010B5244BD3F8084814F0100406D1224BBF
:100A8C001B7883B124B9204B1B78CBB9002C36D002
:100A9C001D4B1B7823BB00201B4B18701B4B186085
:100AAC001B4B186010BDFFF73FFE1A4B186000235C
:100ABC00174A1360154A1360134B01221A70E1E7B1
:100ACC00FFF732FE134B1B68C01AB0F57A7FDDD3EB
:100ADC000E4B1B68002BD9D101200C4B1860E1E7A1
:100AEC00FFF722FE0B4B1B68C01AB0F57A7FD2D2EF
:100AFC000120074B1860044B00221A70D2E700202B
:100B0C00D0E700BF0000014038000020700000203A
:100B1C00740000203400002010B5284BD3F808488E
:100B2C0014F0200425D1264B1B7853B114BB244B55
:100B3C001B78F3B1234B1B7883B10020224B186038
:100B4C0024E0FFF7F1FD214B18600023204A1360CD
:100B5C001D4A13601A4B01221A70E7E7FFF7E4FDF8
:100B6C001A4B1B68C01AB0F57A7F02D3164B1B6860
:100B7C006BB10CB3124B1B787BB90020104B187067
:100B8C00104B1870104B1860114B186010BD0120E1
:100B9C000D4B18600B4B1870F8E7FFF7C5FD0B4BAE
:100BAC001B68C01AB0F57A7FE7D20120084B186099
:100BBC00034B00221A70E9E70020E7E70000014030
:100BCC003000002028000020680000202C000020AD
:100BDC006C00002038B59D4A936943F0040393617F
:100BEC009B4BD3F8042822F00101C3F8041841F000
:100BFC000201C3F8041822F0050141F00201C3F808
:100C0C00041822F00D0242F00202C3F80428D3F8B3
:100C1C000C1821F48070C3F80C0822F01000C3F8F3
:100C2C00040840F02000C3F8040822F0500040F003
:100C3C002000C3F8040822F0D00242F02002C3F8CE
:100C4C00042821F44070C3F80C0822F48070C3F817
:100C5C00040840F40070C3F8040822F4A06040F4C7
:100C6C000070C3F8040822F4506242F40072C3F816
:100C7C00042821F4E062C3F80C28D3F8002822F4ED
:100C8C008030C3F8000822F44030C3F8000822F486
:100C9C00E022C3F8002842F40022C3F8002821F413
:100CAC00E260C3F80C0822F48010C3F8000822F4A8
:100CBC004010C3F8000822F4E002C3F8002842F404
:100CCC000002C3F8002821F4E661C3F80C18FFF702
:100CDC0021FDFFF70BFD5E4BD3F8083813F0100F16
:100CEC000CBF012200225B4B1A60FFF7C1FEFFF71D
:100CFC0013FF594B1B687BB1584B1C68584B53F86E
:100D0C00245058492846FFF7BBFC002837D0544BD9
:100D1C004FF07C5243F82420534B1B6863B14F4B6C
:100D2C001B68012B34D0022B39D02BB94F4A1368D6
:100D3C00B3FA83F35B0913604D4B1B68BBB14D4B8E
:100D4C001B68002B32D145490A6801320A60434ABC
:100D5C001268022A07DD414A01211160B3FA83F3BC
:100D6C005B09444A13603D4B1B68002B23DB424B51
:100D7C001B783A4A1068834227D1002433E04FF0A5
:100D8C0080412846FFF7C2F9354B43F82400C3E7EE
:100D9C00364A5368B3FA83F35B095360CCE7334AA2
:100DAC009368B3FA83F35B099360C5E72B490A6830
:100DBC00013A0A60CBE7294B01221A602D4A1368CD
:100DCC00B3FA83F35B091360D1E7C0B2FFF7AEFD52
:100DDC00224B1A68284B1A70CFE721492046FFF79F
:100DEC0087FD0134E4B2022C3FF673AF1F4B53F86E
:100DFC002430002BF1D1012C0FD0022C19D0002C57
:100E0C00EFD1134AD2F8103823F48073C2F810389B
:100E1C0043F08073C2F81038E3E70D4AD2F810386B
:100E2C0023F40073C2F8103843F00073C2F8103882
:100E3C00D7E7074AD2F8103823F48063C2F8103889
:100E4C0043F08063C2F81038CBE700BF00100240BB
:100E5C0000000140780000207400002054000020A5
:100E6C0000000020000090406C0000205800002082
:100E7C00680000206400002050000020FFF734FCC4
:100E8C000B480C490C4A002302E0D458C4500433DC
:100E9C00C4188C42F9D3094A094C002301E01360B1
:100EAC000432A242FBD300F00FF8FFF793FE704719
:100EBC00000000200C0000203C0F00080C0000205B
:100ECC0088000020FEE7000070B500260C4D0D4C8C
:100EDC00641BA410A64209D100F01AF800260A4D92
:100EEC000A4C641BA410A64205D170BD55F8043BF6
:100EFC0098470136EEE755F8043B98470136F2E780
:100F0C00340F0008340F0008340F0008380F0008A5
:100F1C00F8B500BFF8BC08BC9E467047F8B500BFDA
:080F2C00F8BC08BC9E467047AA
:040F3400D9060008D2
:040F3800B5060008F2
:0C0F3C000000003F0000003F0000003FEC
:0400000508000E8958
:00000001FF
