:020000040800F2
:100000000050002089040008D1040008D104000831
:10001000D1040008D1040008D10400080000000049
:10002000000000000000000000000000D1040008F3
:10003000D104000800000000D1040008D104000829
:10004000D1040008D1040008D1040008D10400083C
:10005000D1040008D1040008D1040008D10400082C
:10006000D1040008D1040008D1040008D10400081C
:10007000D1040008D1040008D1040008D10400080C
:10008000D1040008D1040008D1040008D1040008FC
:10009000D1040008D1040008D1040008D1040008EC
:1000A000D1040008D1040008D1040008D1040008DC
:1000B000D1040008D1040008D1040008D1040008CC
:1000C000D1040008D1040008D1040008D1040008BC
:1000D000D1040008D1040008D1040008D1040008AC
:1000E000D1040008D1040008D10400080000000079
:1000F0000000000000000000000000000000000000
:0C01000000000000000000005FF808F1A3
:10010C0010B5054C237833B9044B13B10448AFF345
:10011C0000800123237010BD0000002000000000AF
:10012C001C05000808B5034B1BB103490348AFF38A
:10013C00008008BD00000000040000201C05000821
:10014C007047002201E000BF013240F2544300FB33
:10015C0003F39342F7D8704708B5BE4A936943F04E
:10016C0004039361BC4BD3F8042822F00101C3F8BB
:10017C00041841F00201C3F8041822F0050141F003
:10018C000201C3F8041822F00D0242F00202C3F877
:10019C000428D3F80C1821F48070C3F80C0822F052
:1001AC001000C3F8040840F02000C3F8040822F043
:1001BC00500040F02000C3F8040822F0D00242F0B6
:1001CC002002C3F8042821F44070C3F80C0822F470
:1001DC008070C3F8040840F40070C3F8040822F4DB
:1001EC00A06040F40070C3F8040822F4506242F49A
:1001FC000072C3F8042821F4E062C3F80C28D3F889
:10020C00002822F48030C3F8000822F44030C3F8F0
:10021C00000822F4E022C3F8002842F40022C3F8BC
:10022C00002821F4E260C3F80C0822F48010C3F813
:10023C00000822F44010C3F8000822F4E002C3F8CE
:10024C00002842F40002C3F8002821F4E661C3F848
:10025C000C183FE0814B00221A604EE000237F4ACD
:10026C0013607F4A13604BE07E4B00221A605AE009
:10027C0000237C4A13607C4A136057E07B4A136866
:10028C00013B1360032B02D9134600221A60642031
:10029C00FFF757FF5DE0704AD2F8103823F48071F5
:1002AC00C2F8101841F08071C2F8101823F4407194
:1002BC0041F08070C2F8100841F04071C2F810187B
:1002CC0023F4E06343F04071C2F8101843F0E0638C
:1002DC00C2F81038604BD3F8083813F0100F0CBF6D
:1002EC0001230023624A1360002BB7D05C4A1268CA
:1002FC009342AFD0594B01221A60594B01221A601C
:10030C00554BD3F8083813F0200F0CBF01230023F2
:10031C00584A1360002BABD0534A12689342A3D0B7
:10032C00504B01221A60504B01221A604B4B1B6838
:10033C007BB1514B1B68002BA0D14C4A1368013385
:10034C001360032B02D9134603221A606420FFF7B3
:10035C00F8FE444B1B682BB1474A1368B3FA83F37E
:10036C005B091360414B1B68032BB3D801A252F8F5
:10037C0023F000BFA302000891030008DD0300086E
:10038C0021040008344AD2F8103823F08073C2F8E4
:10039C00103843F48071C2F8101823F4007141F442
:1003AC008070C2F8100841F0007141F48071C2F8FD
:1003BC00101823F4C06343F0007141F48071C2F84B
:1003CC00101843F0C06343F48073C2F8103881E70F
:1003DC00214AD2F8103823F08071C2F8101841F479
:1003EC008071C2F8101823F0407343F48071C2F886
:1003FC00101843F44071C2F8101823F4806343F4CE
:10040C004071C2F8101843F0806343F44073C2F893
:10041C0010385FE7104AD2F8103823F08071C2F818
:10042C00101841F48071C2F8101823F0407141F497
:10043C008070C2F8100841F44071C2F8101823F013
:10044C00E06343F44071C2F8101843F4E063C2F85F
:10045C0010383FE70010024000000140300000203F
:10046C003400002024000020280000201C00002064
:10047C00380000202C00002020000020FFF760FE38
:10048C000B480C490C4A002302E0D458C4500433E6
:10049C00C4188C42F9D3094A094C002301E01360BB
:1004AC000432A242FBD300F00FF8FFF755FE704761
:1004BC0000000020000000203C0500080000002087
:1004CC003C000020FEE7000070B500260C4D0D4CE2
:1004DC00641BA410A64209D100F01AF800260A4D9C
:1004EC000A4C641BA410A64205D170BD55F8043B00
:1004FC0098470136EEE755F8043B98470136F2E78A
:10050C0034050008340500083405000838050008D7
:10051C00F8B500BFF8BC08BC9E467047F8B500BFE4
:08052C00F8BC08BC9E467047B4
:040534003101000889
:040538000D010008A9
:040000050800048962
:00000001FF
