:020000040800F2
:1000000000500020510100089901000899010008E2
:1000100099010008990100089901000800000000FA
:10002000000000000000000000000000990100082E
:1000300099010008000000009901000899010008DA
:100040009901000899010008990100089901000828
:100050009901000899010008990100089901000818
:100060009901000899010008990100089901000808
:1000700099010008990100089901000899010008F8
:1000800099010008990100089901000899010008E8
:1000900099010008990100089901000899010008D8
:1000A00099010008990100089901000899010008C8
:1000B00099010008990100089901000899010008B8
:1000C00099010008990100089901000899010008A8
:1000D0009901000899010008990100089901000898
:1000E000990100089901000899010008000000002A
:1000F0000000000000000000000000000000000000
:0C01000000000000000000005FF808F1A3
:10010C0010B5054C237833B9044B13B10448AFF345
:10011C0000800123237010BD0000002000000000AF
:10012C00E401000808B5034B1BB103490348AFF3C6
:10013C00008008BD0000000004000020E40100085D
:10014C007047FEE7FFF7FCFF0B480C490C4A0023F5
:10015C0002E0D458C4500433C4188C42F9D3094A71
:10016C00094C002301E013600432A242FBD300F0DF
:10017C000FF8FFF7E6FF704700000020000000209A
:10018C0004020008000000201C000020FEE7000014
:10019C0070B500260C4D0D4C641BA410A64209D161
:1001AC0000F01AF800260A4D0A4C641BA410A64253
:1001BC0005D170BD55F8043B98470136EEE755F86C
:1001CC00043B98470136F2E7FC010008FC010008EB
:1001DC00FC01000800020008F8B500BFF8BC08BC20
:1001EC009E467047F8B500BFF8BC08BC9E467047E9
:0401FC0031010008C5
:040200000D010008E4
:04000005080001519D
:00000001FF
